{
  "contractName": "Deal",
  "abi": [
    {
      "constant": true,
      "inputs": [],
      "name": "owner",
      "outputs": [
        {
          "name": "",
          "type": "address"
        }
      ],
      "payable": false,
      "stateMutability": "view",
      "type": "function"
    },
    {
      "constant": true,
      "inputs": [],
      "name": "buyerAddr",
      "outputs": [
        {
          "name": "",
          "type": "address"
        }
      ],
      "payable": false,
      "stateMutability": "view",
      "type": "function"
    },
    {
      "inputs": [
        {
          "name": "_buyerAddr",
          "type": "address"
        }
      ],
      "payable": true,
      "stateMutability": "payable",
      "type": "constructor"
    },
    {
      "anonymous": false,
      "inputs": [
        {
          "indexed": false,
          "name": "buyer",
          "type": "address"
        },
        {
          "indexed": false,
          "name": "name",
          "type": "string"
        }
      ],
      "name": "BuyerRegistered",
      "type": "event"
    },
    {
      "anonymous": false,
      "inputs": [
        {
          "indexed": false,
          "name": "buyer",
          "type": "address"
        },
        {
          "indexed": false,
          "name": "goods",
          "type": "string"
        },
        {
          "indexed": false,
          "name": "quantity",
          "type": "uint256"
        },
        {
          "indexed": false,
          "name": "orderno",
          "type": "uint256"
        }
      ],
      "name": "OrderSent",
      "type": "event"
    },
    {
      "anonymous": false,
      "inputs": [
        {
          "indexed": false,
          "name": "buyer",
          "type": "address"
        },
        {
          "indexed": false,
          "name": "orderno",
          "type": "uint256"
        },
        {
          "indexed": false,
          "name": "price",
          "type": "uint256"
        },
        {
          "indexed": false,
          "name": "ttype",
          "type": "int8"
        }
      ],
      "name": "PriceSent",
      "type": "event"
    },
    {
      "anonymous": false,
      "inputs": [
        {
          "indexed": false,
          "name": "buyer",
          "type": "address"
        },
        {
          "indexed": false,
          "name": "orderno",
          "type": "uint256"
        },
        {
          "indexed": false,
          "name": "value",
          "type": "uint256"
        },
        {
          "indexed": false,
          "name": "now",
          "type": "uint256"
        }
      ],
      "name": "SafepaySent",
      "type": "event"
    },
    {
      "anonymous": false,
      "inputs": [
        {
          "indexed": false,
          "name": "buyer",
          "type": "address"
        },
        {
          "indexed": false,
          "name": "invoiceno",
          "type": "uint256"
        },
        {
          "indexed": false,
          "name": "orderno",
          "type": "uint256"
        },
        {
          "indexed": false,
          "name": "delivery_date",
          "type": "uint256"
        },
        {
          "indexed": false,
          "name": "courier",
          "type": "address"
        }
      ],
      "name": "InvoiceSent",
      "type": "event"
    },
    {
      "anonymous": false,
      "inputs": [
        {
          "indexed": false,
          "name": "buyer",
          "type": "address"
        },
        {
          "indexed": false,
          "name": "invoiceno",
          "type": "uint256"
        },
        {
          "indexed": false,
          "name": "orderno",
          "type": "uint256"
        },
        {
          "indexed": false,
          "name": "real_delivey_date",
          "type": "uint256"
        },
        {
          "indexed": false,
          "name": "courier",
          "type": "address"
        }
      ],
      "name": "OrderDelivered",
      "type": "event"
    },
    {
      "constant": false,
      "inputs": [
        {
          "name": "goods",
          "type": "string"
        },
        {
          "name": "quantity",
          "type": "uint256"
        }
      ],
      "name": "sendOrder",
      "outputs": [],
      "payable": true,
      "stateMutability": "payable",
      "type": "function"
    },
    {
      "constant": true,
      "inputs": [
        {
          "name": "number",
          "type": "uint256"
        }
      ],
      "name": "queryOrder",
      "outputs": [
        {
          "name": "buyer",
          "type": "address"
        },
        {
          "name": "goods",
          "type": "string"
        },
        {
          "name": "quantity",
          "type": "uint256"
        },
        {
          "name": "price",
          "type": "uint256"
        },
        {
          "name": "safepay",
          "type": "uint256"
        },
        {
          "name": "delivery_price",
          "type": "uint256"
        },
        {
          "name": "delivery_safepay",
          "type": "uint256"
        }
      ],
      "payable": false,
      "stateMutability": "view",
      "type": "function"
    },
    {
      "constant": false,
      "inputs": [
        {
          "name": "orderno",
          "type": "uint256"
        },
        {
          "name": "price",
          "type": "uint256"
        },
        {
          "name": "ttype",
          "type": "int8"
        }
      ],
      "name": "sendPrice",
      "outputs": [],
      "payable": true,
      "stateMutability": "payable",
      "type": "function"
    },
    {
      "constant": false,
      "inputs": [
        {
          "name": "orderno",
          "type": "uint256"
        }
      ],
      "name": "sendSafepay",
      "outputs": [],
      "payable": true,
      "stateMutability": "payable",
      "type": "function"
    },
    {
      "constant": false,
      "inputs": [
        {
          "name": "orderno",
          "type": "uint256"
        },
        {
          "name": "delivery_date",
          "type": "uint256"
        },
        {
          "name": "courier",
          "type": "address"
        }
      ],
      "name": "sendInvoice",
      "outputs": [],
      "payable": true,
      "stateMutability": "payable",
      "type": "function"
    },
    {
      "constant": true,
      "inputs": [
        {
          "name": "invoiceno",
          "type": "uint256"
        }
      ],
      "name": "getInvoice",
      "outputs": [
        {
          "name": "buyer",
          "type": "address"
        },
        {
          "name": "orderno",
          "type": "uint256"
        },
        {
          "name": "delivery_date",
          "type": "uint256"
        },
        {
          "name": "courier",
          "type": "address"
        }
      ],
      "payable": false,
      "stateMutability": "view",
      "type": "function"
    },
    {
      "constant": false,
      "inputs": [
        {
          "name": "invoiceno",
          "type": "uint256"
        },
        {
          "name": "timestamp",
          "type": "uint256"
        }
      ],
      "name": "delivery",
      "outputs": [],
      "payable": true,
      "stateMutability": "payable",
      "type": "function"
    },
    {
      "constant": true,
      "inputs": [],
      "name": "health",
      "outputs": [
        {
          "name": "",
          "type": "string"
        }
      ],
      "payable": false,
      "stateMutability": "pure",
      "type": "function"
    }
  ],
  "bytecode": "0x60806040526040516020806114c583398101806040528101908080519060200190929190505050336000806101000a81548173ffffffffffffffffffffffffffffffffffffffff021916908373ffffffffffffffffffffffffffffffffffffffff16021790555080600160006101000a81548173ffffffffffffffffffffffffffffffffffffffff021916908373ffffffffffffffffffffffffffffffffffffffff1602179055505061140e806100b76000396000f3006080604052600436106100a4576000357c0100000000000000000000000000000000000000000000000000000000900463ffffffff1680633a23cc0a146100a95780636ca1608b146101575780637633a22c146101815780638da5cb5b146102115780639670d69914610268578063a877f215146102ce578063c3a1e5b314610325578063c5cc426a1461035c578063d4f1259714610458578063fe285248146104a2575b600080fd5b3480156100b557600080fd5b506100d4600480360381019080803590602001909291905050506104c2565b604051808573ffffffffffffffffffffffffffffffffffffffff1673ffffffffffffffffffffffffffffffffffffffff1681526020018481526020018381526020018273ffffffffffffffffffffffffffffffffffffffff1673ffffffffffffffffffffffffffffffffffffffff16815260200194505050505060405180910390f35b61017f6004803603810190808035906020019092919080359060200190929190505050610591565b005b34801561018d57600080fd5b50610196610835565b6040518080602001828103825283818151815260200191508051906020019080838360005b838110156101d65780820151818401526020810190506101bb565b50505050905090810190601f1680156102035780820380516001836020036101000a031916815260200191505b509250505060405180910390f35b34801561021d57600080fd5b50610226610872565b604051808273ffffffffffffffffffffffffffffffffffffffff1673ffffffffffffffffffffffffffffffffffffffff16815260200191505060405180910390f35b6102cc600480360381019080803590602001908201803590602001908080601f016020809104026020016040519081016040528093929190818152602001838380828437820191505050505050919291929080359060200190929190505050610897565b005b3480156102da57600080fd5b506102e3610bec565b604051808273ffffffffffffffffffffffffffffffffffffffff1673ffffffffffffffffffffffffffffffffffffffff16815260200191505060405180910390f35b61035a6004803603810190808035906020019092919080359060200190929190803560000b9060200190929190505050610c12565b005b34801561036857600080fd5b5061038760048036038101908080359060200190929190505050610de1565b604051808873ffffffffffffffffffffffffffffffffffffffff1673ffffffffffffffffffffffffffffffffffffffff16815260200180602001878152602001868152602001858152602001848152602001838152602001828103825288818151815260200191508051906020019080838360005b838110156104175780820151818401526020810190506103fc565b50505050905090810190601f1680156104445780820380516001836020036101000a031916815260200191505b509850505050505050505060405180910390f35b6104a06004803603810190808035906020019092919080359060200190929190803573ffffffffffffffffffffffffffffffffffffffff169060200190929190505050610f83565b005b6104c0600480360381019080803590602001909291905050506111da565b005b6000806000806000806003600088815260200190815260200160002060020160009054906101000a900460ff1615156104fa57600080fd5b60036000888152602001908152602001600020915060026000836000015481526020019081526020016000209050600160009054906101000a900473ffffffffffffffffffffffffffffffffffffffff16816002015482600501600401548360050160000160009054906101000a900473ffffffffffffffffffffffffffffffffffffffff16955095509550955050509193509193565b6000806003600085815260200190815260200160002060020160009054906101000a900460ff1615156105c357600080fd5b600360008581526020019081526020016000209150600260008360000154815260200190815260200160002090503373ffffffffffffffffffffffffffffffffffffffff168160050160000160009054906101000a900473ffffffffffffffffffffffffffffffffffffffff1673ffffffffffffffffffffffffffffffffffffffff1614151561065257600080fd5b7f587b8bd23b43f29f1f6f1d2d4306080dbcc8f78f1ec918c6812b33001fefc990600160009054906101000a900473ffffffffffffffffffffffffffffffffffffffff16858360020154868560050160000160009054906101000a900473ffffffffffffffffffffffffffffffffffffffff16604051808673ffffffffffffffffffffffffffffffffffffffff1673ffffffffffffffffffffffffffffffffffffffff1681526020018581526020018481526020018381526020018273ffffffffffffffffffffffffffffffffffffffff1673ffffffffffffffffffffffffffffffffffffffff1681526020019550505050505060405180910390a16000809054906101000a900473ffffffffffffffffffffffffffffffffffffffff1673ffffffffffffffffffffffffffffffffffffffff166108fc82600401549081150290604051600060405180830381858888f193505050501580156107b9573d6000803e3d6000fd5b508060050160000160009054906101000a900473ffffffffffffffffffffffffffffffffffffffff1673ffffffffffffffffffffffffffffffffffffffff166108fc82600501600201549081150290604051600060405180830381858888f1935050505015801561082e573d6000803e3d6000fd5b5050505050565b60606040805190810160405280600781526020017f72756e6e696e6700000000000000000000000000000000000000000000000000815250905090565b6000809054906101000a900473ffffffffffffffffffffffffffffffffffffffff1681565b600160009054906101000a900473ffffffffffffffffffffffffffffffffffffffff1673ffffffffffffffffffffffffffffffffffffffff163373ffffffffffffffffffffffffffffffffffffffff161415156108f357600080fd5b60046000815480929190600101919050555060e0604051908101604052808381526020018281526020016004548152602001600081526020016000815260200160e060405190810160405280600073ffffffffffffffffffffffffffffffffffffffff1681526020016000815260200160008152602001600073ffffffffffffffffffffffffffffffffffffffff16815260200160008152602001600081526020016000151581525081526020016001151581525060026000600454815260200190815260200160002060008201518160000190805190602001906109d992919061133d565b506020820151816001015560408201518160020155606082015181600301556080820151816004015560a08201518160050160008201518160000160006101000a81548173ffffffffffffffffffffffffffffffffffffffff021916908373ffffffffffffffffffffffffffffffffffffffff160217905550602082015181600101556040820151816002015560608201518160030160006101000a81548173ffffffffffffffffffffffffffffffffffffffff021916908373ffffffffffffffffffffffffffffffffffffffff1602179055506080820151816004015560a0820151816005015560c08201518160060160006101000a81548160ff021916908315150217905550505060c082015181600c0160006101000a81548160ff0219169083151502179055509050507fb7e953e9d5dc29b2595c1ea82eed1d21925712de892f26dd7323f0040bf3f59c338383600454604051808573ffffffffffffffffffffffffffffffffffffffff1673ffffffffffffffffffffffffffffffffffffffff16815260200180602001848152602001838152602001828103825285818151815260200191508051906020019080838360005b83811015610bab578082015181840152602081019050610b90565b50505050905090810190601f168015610bd85780820380516001836020036101000a031916815260200191505b509550505050505060405180910390a15050565b600160009054906101000a900473ffffffffffffffffffffffffffffffffffffffff1681565b6000809054906101000a900473ffffffffffffffffffffffffffffffffffffffff1673ffffffffffffffffffffffffffffffffffffffff163373ffffffffffffffffffffffffffffffffffffffff16141515610c6d57600080fd5b60026000848152602001908152602001600020600c0160009054906101000a900460ff161515610c9c57600080fd5b60018160000b1480610cb1575060028160000b145b1515610cbc57600080fd5b60018160000b1415610ce857816002600085815260200190815260200160002060030181905550610d39565b81600260008581526020019081526020016000206005016001018190555060016002600085815260200190815260200160002060050160060160006101000a81548160ff0219169083151502179055505b7faf54ca7c1ecf75ea1c151f265e9ab3eeecb27d19e8d3ec6b7e199414dd0c1ed6600160009054906101000a900473ffffffffffffffffffffffffffffffffffffffff16848484604051808573ffffffffffffffffffffffffffffffffffffffff1673ffffffffffffffffffffffffffffffffffffffff1681526020018481526020018381526020018260000b60000b815260200194505050505060405180910390a1505050565b60006060600080600080600060026000898152602001908152602001600020600c0160009054906101000a900460ff161515610e1c57600080fd5b600160009054906101000a900473ffffffffffffffffffffffffffffffffffffffff16600260008a8152602001908152602001600020600001600260008b815260200190815260200160002060010154600260008c815260200190815260200160002060030154600260008d815260200190815260200160002060040154600260008e815260200190815260200160002060050160010154600260008f815260200190815260200160002060050160020154858054600181600116156101000203166002900480601f016020809104026020016040519081016040528092919081815260200182805460018160011615610100020316600290048015610f635780601f10610f3857610100808354040283529160200191610f63565b820191906000526020600020905b815481529060010190602001808311610f4657829003601f168201915b505050505095509650965096509650965096509650919395979092949650565b60026000848152602001908152602001600020600c0160009054906101000a900460ff161515610fb257600080fd5b3373ffffffffffffffffffffffffffffffffffffffff166000809054906101000a900473ffffffffffffffffffffffffffffffffffffffff1673ffffffffffffffffffffffffffffffffffffffff1614151561100d57600080fd5b600560008154809291906001019190505550606060405190810160405280848152602001600554815260200160011515815250600360006005548152602001908152602001600020600082015181600001556020820151816001015560408201518160020160006101000a81548160ff021916908315150217905550905050816002600085815260200190815260200160002060050160040181905550806002600085815260200190815260200160002060050160000160006101000a81548173ffffffffffffffffffffffffffffffffffffffff021916908373ffffffffffffffffffffffffffffffffffffffff1602179055507fbc1c01dc0d1e366f76a22e7db8af8028033bd0a521feaf529046a6bc413ce0f0600160009054906101000a900473ffffffffffffffffffffffffffffffffffffffff16600554858585604051808673ffffffffffffffffffffffffffffffffffffffff1673ffffffffffffffffffffffffffffffffffffffff1681526020018581526020018481526020018381526020018273ffffffffffffffffffffffffffffffffffffffff1673ffffffffffffffffffffffffffffffffffffffff1681526020019550505050505060405180910390a1505050565b60026000828152602001908152602001600020600c0160009054906101000a900460ff16151561120957600080fd5b3373ffffffffffffffffffffffffffffffffffffffff16600160009054906101000a900473ffffffffffffffffffffffffffffffffffffffff1673ffffffffffffffffffffffffffffffffffffffff1614151561126557600080fd5b3460026000838152602001908152602001600020600501600101546002600084815260200190815260200160002060030154011415156112a457600080fd5b3460026000838152602001908152602001600020600401819055507f4ca09f9926d2e48ef31cb6b14dbda230c7420702b8a8f5b878dd572c593e99d233823442604051808573ffffffffffffffffffffffffffffffffffffffff1673ffffffffffffffffffffffffffffffffffffffff16815260200184815260200183815260200182815260200194505050505060405180910390a150565b828054600181600116156101000203166002900490600052602060002090601f016020900481019282601f1061137e57805160ff19168380011785556113ac565b828001600101855582156113ac579182015b828111156113ab578251825591602001919060010190611390565b5b5090506113b991906113bd565b5090565b6113df91905b808211156113db5760008160009055506001016113c3565b5090565b905600a165627a7a723058202c06e9400211f326526e2f52196b2aa057e024ccafead75f03141455e88d480b0029",
  "source": "pragma solidity ^0.4.18;\n\ncontract Deal {\n\n  /// The seller's address\n  address public owner;\n\n  /// The buyer's address part on this contract\n  address public buyerAddr;\n\n  /// The Buyer struct  \n  struct Buyer {\n    address addr;\n    string name;\n\n    bool init;\n  }\n\n  /// The Shipment struct\n  struct Shipment {\n    address courier;\n    uint price;\n    uint safepay;\n    address payer;\n    uint date;\n    uint real_date;\n\n    bool init;\n  }\n\n  /// The Order struct\n  struct Order {\n    string goods;\n    uint quantity;\n    uint number;\n    uint price;\n    uint safepay;\n    Shipment shipment;\n\n    bool init;\n  }\n\n  /// The Invoice struct\n  struct Invoice {\n    uint orderno;\n    uint number;\n\n    bool init;\n  }\n\n  /// The mapping to store orders\n  mapping (uint => Order) orders;\n\n  /// The mapping to store invoices\n  mapping (uint => Invoice) invoices;\n\n  /// The sequence number of orders\n  uint orderseq;\n\n  /// The sequence number of invoices\n  uint invoiceseq;\n\n  /// Event triggered for every registered buyer\n  event BuyerRegistered(address buyer, string name);\n\n  /// Event triggered for every new order\n  event OrderSent(address buyer, string goods, uint quantity, uint orderno);\n\n  /// Event triggerd when the order gets valued and wants to know the value of the payment\n  event PriceSent(address buyer, uint orderno, uint price, int8 ttype);\n\n  /// Event trigger when the buyer performs the safepay\n  event SafepaySent(address buyer, uint orderno, uint value, uint now);\n\n  /// Event triggered when the seller sends the invoice\n  event InvoiceSent(address buyer, uint invoiceno, uint orderno, uint delivery_date, address courier);\n\n  /// Event triggered when the courie delives the order\n  event OrderDelivered(address buyer, uint invoiceno, uint orderno, uint real_delivey_date, address courier);\n\n  /// The smart contract's constructor\n  function Deal(address _buyerAddr) public payable {\n    \n    /// The seller is the contract's owner\n    owner = msg.sender;\n\n    buyerAddr = _buyerAddr;\n  }\n\n  /// The function to send purchase orders\n  ///   requires fee\n  ///   Payable functions returns just the transaction object, with no custom field.\n  ///   To get field values listen to OrderSent event.\n  function sendOrder(string goods, uint quantity) payable public {\n    \n    /// Accept orders just from buyer\n    require(msg.sender == buyerAddr);\n\n    /// Increment the order sequence\n    orderseq++;\n\n    /// Create the order register\n    orders[orderseq] = Order(goods, quantity, orderseq, 0, 0, Shipment(0, 0, 0, 0, 0, 0, false), true);\n\n    /// Trigger the event\n    OrderSent(msg.sender, goods, quantity, orderseq);\n\n  }\n\n  /// The function to query orders by number\n  ///   Constant functions returns custom fields\n  function queryOrder(uint number) constant public returns (address buyer, string goods, uint quantity, uint price, uint safepay, uint delivery_price, uint delivery_safepay) {\n    \n    /// Validate the order number\n    require(orders[number].init);\n\n    /// Return the order data\n    return(buyerAddr, orders[number].goods, orders[number].quantity, orders[number].price, orders[number].safepay, orders[number].shipment.price, orders[number].shipment.safepay);\n  }\n\n  /// The function to send the price to pay for order\n  ///  Just the owner can call this function\n  ///  requires free\n  function sendPrice(uint orderno, uint price, int8 ttype) payable public {\n  \n    /// Only the owner can use this function\n    require(msg.sender == owner);\n\n    /// Validate the order number\n    require(orders[orderno].init);\n\n    /// Validate the type\n    ///  1=order\n    ///  2=shipment\n    require(ttype == 1 || ttype == 2);\n\n    if(ttype == 1){/// Price for Order\n\n      /// Update the order price\n      orders[orderno].price = price;\n\n    } else {/// Price for Shipment\n\n      /// Update the shipment price\n      orders[orderno].shipment.price = price;\n      orders[orderno].shipment.init  = true;\n    }\n\n    /// Trigger the event\n    PriceSent(buyerAddr, orderno, price, ttype);\n\n  }\n\n  /// The function to send the value of order's price\n  ///  This value will be blocked until the delivery of order\n  ///  requires fee\n  function sendSafepay(uint orderno) payable public {\n\n    /// Validate the order number\n    require(orders[orderno].init);\n\n    /// Just the buyer can make safepay\n    require(buyerAddr == msg.sender);\n\n    /// The order's value plus the shipment value must equal to msg.value\n    require((orders[orderno].price + orders[orderno].shipment.price) == msg.value);\n\n    orders[orderno].safepay = msg.value;\n\n    SafepaySent(msg.sender, orderno, msg.value, now);\n  }\n\n  /// The function to send the invoice data\n  ///  requires fee\n  function sendInvoice(uint orderno, uint delivery_date, address courier) payable public {\n\n    /// Validate the order number\n    require(orders[orderno].init);\n\n    /// Just the seller can send the invoice\n    require(owner == msg.sender);\n\n    invoiceseq++;\n\n    /// Create then Invoice instance and store it\n    invoices[invoiceseq] = Invoice(orderno, invoiceseq, true);\n\n    /// Update the shipment data\n    orders[orderno].shipment.date    = delivery_date;\n    orders[orderno].shipment.courier = courier;\n\n    /// Trigger the event\n    InvoiceSent(buyerAddr, invoiceseq, orderno, delivery_date, courier);\n  }\n\n  /// The function to get the sent invoice\n  ///  requires no fee\n  function getInvoice(uint invoiceno) constant public returns (address buyer, uint orderno, uint delivery_date, address courier){\n  \n    /// Validate the invoice number\n    require(invoices[invoiceno].init);\n\n    Invoice storage _invoice = invoices[invoiceno];\n    Order storage _order     = orders[_invoice.orderno];\n\n    return (buyerAddr, _order.number, _order.shipment.date, _order.shipment.courier);\n  }\n\n  /// The function to mark an order as delivered\n  function delivery(uint invoiceno, uint timestamp) payable public {\n\n    /// Validate the invoice number\n    require(invoices[invoiceno].init);\n\n    Invoice storage _invoice = invoices[invoiceno];\n    Order storage _order     = orders[_invoice.orderno];\n\n    /// Just the courier can call this function\n    require(_order.shipment.courier == msg.sender);\n\n    OrderDelivered(buyerAddr, invoiceno, _order.number, timestamp, _order.shipment.courier);\n\n    /// Payout the Order to the seller\n    owner.transfer(_order.safepay);\n\n    /// Payout the Shipment to the courier\n    _order.shipment.courier.transfer(_order.shipment.safepay);\n\n  }\n\n  function health() pure public returns (string) {\n    return \"running\";\n  }\n}\n",
  "sourcePath": "/Users/luongt/Github/Qtum/eth-supplychain-example-smart-contract/contracts/Deal.sol",
  "compiler": {
    "name": "solc",
    "version": "0.4.24+commit.e67f0147.Emscripten.clang"
  },
  "schemaVersion": "2.0.1",
  "updatedAt": "2018-08-22T06:02:42.678Z"
}